:100000005DC00000EAC300000FC400007EC0000015
:100010007CC000007AC0000078C0000062C300000D
:1000200074C0000072C0000070C000000C94CD10BD
:100030006CC000006AC0000068C0000066C000001C
:1000400025C4000062C000009FC10000CFC10000B5
:100050005CC000005AC0000058C0000056C000003C
:1000600054C0000052C0000002000000080002015D
:10007000000003040700000000000000000102046B
:10008000081020408001020408102001020408101A
:100090002004040404040404040202020202020311
:1000A000030303030300000000250028002B0000C9
:1000B000000000240027002A0000240211241FBE93
:1000C000CFEFD8E0DEBFCDBF11E0A0E0B1E0EEE3BE
:1000D000F3E202C005900D92A03AB107D9F728E0EB
:1000E000A0EAB1E001C01D92A33FB207E1F710E022
:1000F000CEE5D0E004C02197FE010E948E11CD35DF
:10010000D107C9F7B9D30C949D117ACFFC01918D19
:10011000228D892F90E0805C9F4F821B91098F7305
:1001200099270895FC01918D828D981731F0828D69
:10013000E80FF11D858D90E008958FEF9FEF0895F2
:10014000FC01918D828D981761F0828DDF01A80FDF
:10015000B11D5D968C91928D9F5F9F73928F90E001
:1001600008958FEF9FEF0895FC01538D448D252F47
:1001700030E0842F90E0821B930B541710F0CF9641
:100180000895019708958BE192E0892B41F080E07A
:1001900090E0892B21F04FD181110C94000008953B
:1001A000FC01848DDF01A80FB11DA35ABF4F2C9114
:1001B000848D90E001968F739927848FA689B789E3
:1001C0002C93A089B1898C91837080648C93938DDA
:1001D000848D981306C00288F389E02D80818F7D7D
:1001E00080830895EF92FF920F931F93CF93DF9335
:1001F000EC0181E0888F9B8D8C8D981305C0E88978
:10020000F989808185FD25C0F62E0B8D10E00F5FEA
:100210001F4F0F731127E02E8C8DE8120BC00FB605
:1002200007FCFACFE889F989808185FFF5CFCE01F7
:10023000B7DFF2CF8B8DFE01E80FF11DE35AFF4FC0
:10024000F0829FB7F8940B8FEA89FB8980818062E6
:100250000AC09FB7F894EE89FF896083E889F9891D
:1002600080818370806480839FBF81E090E0DF9114
:10027000CF911F910F91FF90EF900895CF93DF934F
:10028000EC01888D8823C1F0EA89FB89808185FD96
:1002900005C0A889B9898C9186FD0EC00FB607FCF0
:1002A000F5CF808185FFF2CFA889B9898C9185FF30
:1002B000EDCFCE0175DFE8CFDF91CF910895CF92DA
:1002C000DF92EF92FF921F93CF93DF93EC016A01CD
:1002D0007B01122FE889F98982E080834115514E14
:1002E00061057105B1F060E079E08DE390E0A70170
:1002F00096010E946C11DA01C9010197A109B109A7
:10030000B695A795979587959C01211580E13807AB
:10031000A8F0E889F989108260E874E88EE190E03D
:10032000A70196010E946C11DA01C9010197A10988
:10033000B109B695A795979587959C01EC85FD85A4
:100340003083EE85FF852083188EEC89FD8910832C
:10035000EA89FB89808180618083EA89FB898081C9
:1003600088608083EA89FB89808180688083EA894C
:10037000FB8980818F7D8083DF91CF911F91FF90DA
:10038000EF90DF90CF9008951F920F920FB60F92CB
:1003900011242F938F939F93EF93FF93E091B001DC
:1003A000F091B1018081E091B601F091B70182FD39
:1003B00012C090818091B9018F5F8F732091BA0133
:1003C000821751F0E091B901F0E0E056FE4F958FB1
:1003D0008093B90101C08081FF91EF919F918F912E
:1003E0002F910F900FBE0F901F9018951F920F9294
:1003F0000FB60F9211242F933F934F935F936F93F8
:100400007F938F939F93AF93BF93EF93FF9380EA74
:1004100091E0C6DEFF91EF91BF91AF919F918F91D7
:100420007F916F915F914F913F912F910F900FBEF0
:100430000F901F90189580EA91E068DE21E0892BEB
:1004400009F420E0822F0895E0EAF1E0138212829D
:1004500088EE93E0A0E0B0E084839583A683B78321
:100460008CE091E09183808385EC90E09587848790
:1004700084EC90E09787868780EC90E0918B808B6E
:1004800081EC90E0938B828B82EC90E0958B848B57
:1004900086EC90E0978B868B118E128E138E148EC5
:1004A0000895CF92DF92EF92FF920F931F93CF9315
:1004B000DF936C017A018B01C0E0D0E0CE15DF053F
:1004C00081F0D8016D918D01D601ED91FC910190E3
:1004D000F081E02DC6010995892B11F02196EECF10
:1004E0007E01C701DF91CF911F910F91FF90EF9097
:1004F000DF90CF9008956115710579F0FB010190AF
:100500000020E9F73197AF01461B570BDC01ED9155
:10051000FC910280F381E02D099480E090E0089541
:10052000EACFDC01ED91FC910190F081E02D09947E
:100530006AE171E0E0CF8F929F92AF92BF92EF920B
:10054000FF920F931F93CF93DF93CDB7DEB7A197A1
:100550000FB6F894DEBF0FBECDBF7C01FA01CB0110
:1005600019A2223008F42AE08E010F5D1F4F822E5F
:10057000912CA12CB12CBF01A50194010E946C11FA
:10058000F901CA01015011096A3010F4605D01C01F
:10059000695CD8016C93232B242B252B61F7B801C0
:1005A000C701A9DFA1960FB6F894DEBF0FBECDBF7D
:1005B000DF91CF911F910F91FF90EF90BF90AF907F
:1005C0009F908F900895CF92DF92EF92FF920F93BA
:1005D0001F93CF93DF932115310581F4DC01ED9159
:1005E000FC910190F081E02D642FDF91CF911F915C
:1005F0000F91FF90EF90DF90CF9009942A30310552
:10060000F1F477FF1BC06A017B01EC016DE289DF29
:100610008C0144275527BA014C195D096E097F09E1
:100620002AE0CE0188DF800F911FDF91CF911F91CB
:100630000F91FF90EF90DF90CF9008952AE0DF9127
:10064000CF911F910F91FF90EF90DF90CF9073CFDC
:100650009A01AB01770F660B770BB5CF0F931F9302
:10066000CF93DF93EC01F4DF8C01CE0161DF800FCB
:10067000911FDF91CF911F910F910895813039F033
:1006800018F0823051F0089510926E000895809114
:100690006F008D7F80936F000895809170008D7F33
:1006A0008093700081E08093B0008091B100887FDA
:1006B00084608093B1001092B3000895CF93C82F47
:1006C00080910001C81307C0E8E6F0E084919FEF35
:1006D0009093000101C08FEFD1DF60E08C2FCF91AC
:1006E000E8C11F920F920FB60F9211242F933F93E0
:1006F0004F935F936F937F938F939F93AF93BF932A
:10070000EF93FF938091400290914102A0914202A9
:10071000B0914302892B8A2B8B2B51F190913D0292
:10072000E0913E02F0913F02808189278083809191
:10073000400290914102A0914202B09143021816EA
:1007400019061A061B06BCF48091400290914102E2
:10075000A0914202B09143020197A109B10980938F
:10076000400290934102A0934202B093430203C01F
:1007700080910001A3DFFF91EF91BF91AF919F9115
:100780008F917F916F915F914F913F912F910F903A
:100790000FBE0F901F90189508958230E8F4E82F4F
:1007A000F0E0EE0FFF1FEF5FFE4F7183608381303B
:1007B00041F0809169008C7F482B40936900E89A52
:1007C000089580916900837F440F551F440F551F82
:1007D000482B40936900E99A08951F920F920FB633
:1007E0000F9211242F933F934F935F936F937F93B7
:1007F0008F939F93AF93BF93EF93FF93E09101018A
:10080000F09102010995FF91EF91BF91AF919F91F6
:100810008F917F916F915F914F913F912F910F90A9
:100820000FBE0F901F9018951F920F920FB60F9248
:1008300011242F933F934F935F936F937F938F93E5
:100840009F93AF93BF93EF93FF93E0910301F091D8
:1008500004010995FF91EF91BF91AF919F918F9105
:100860007F916F915F914F913F912F910F900FBEAC
:100870000F901F90189508955FD0FDDF1ED3C3EC35
:10088000D0E05AD32097E9F37EDCFBCF1F920F9282
:100890000FB60F9211242F933F938F939F93AF9393
:1008A000BF938091450290914602A0914702B0917A
:1008B00048023091440223E0230F2D3720F40196A3
:1008C000A11DB11D05C026E8230F0296A11DB11D73
:1008D000209344028093450290934602A0934702DE
:1008E000B09348028091490290914A02A0914B0234
:1008F000B0914C020196A11DB11D809349029093C5
:100900004A02A0934B02B0934C02BF91AF919F91CA
:100910008F913F912F910F900FBE0F901F901895C0
:100920002FB7F8946091450270914602809147027A
:10093000909148022FBF0895789484B5826084BD59
:1009400084B5816084BD85B5826085BD85B58160D3
:1009500085BDEEE6F0E0808181608083E1E8F0E033
:100960001082808182608083808181608083E0E862
:10097000F0E0808181608083E1EBF0E08081846041
:100980008083E0EBF0E0808181608083EAE7F0E043
:1009900080818460808380818260808380818160A7
:1009A00080838081806880831092C10008958E309A
:1009B00008F08E502091050190E4299F90011124A8
:1009C0008770822B80937C0080917A008064809372
:1009D0007A0080917A0086FDFCCF8091780020918A
:1009E000790090E0922B0895833081F028F48130D3
:1009F00099F08230A1F008958730A9F08830B9F0DD
:100A00008430D1F4809180008F7D03C0809180007C
:100A10008F7780938000089584B58F7702C084B566
:100A20008F7D84BD08958091B0008F7703C0809141
:100A3000B0008F7D8093B0000895CF93DF9390E056
:100A4000FC01E358FF4F2491FC01EF56FF4F8491C6
:100A5000882361F190E0880F991FFC01E155FF4F59
:100A6000C591D491FC01EB55FF4FA591B491611153
:100A700009C09FB7F8948881209582238883EC91E0
:100A80002E230BC0623061F49FB7F8948881322F17
:100A9000309583238883EC912E2B2C939FBF06C027
:100AA0008FB7F894E8812E2B28838FBFDF91CF91E9
:100AB00008951F93CF93DF93282F30E0F901E75972
:100AC000FF4F8491F901E358FF4FD491F901EF569C
:100AD000FF4FC491CC23B9F0162F811185DFEC2F85
:100AE000F0E0EE0FFF1FEB55FF4FA591B4919FB7BC
:100AF000F894111104C08C91D095D82302C0EC91C8
:100B0000DE2BDC939FBFDF91CF911F910895CF9291
:100B1000DF92EF92FF92CF93DF9300D01F92CDB779
:100B2000DEB7FEDE6B017C018091590290915A0282
:100B3000A0915B02B0915C02A7019601281B390BC2
:100B40004A0B5B0B293C310541055105CCF08FEF79
:100B50009FEF9A8389831B8220E0AE014D5F5F4F38
:100B6000BE016F5F7F4F8091530290915402B4D3C6
:100B7000C0925902D0925A02E0925B02F0925C025B
:100B80000F900F900F90DF91CF91FF90EF90DF903B
:100B9000CF900895CF92DF92EF92FF92CF93DF93A1
:100BA00000D01F92CDB7DEB7BBDE6B017C01809118
:100BB000550290915602A0915702B0915802A70198
:100BC0009601281B390B4A0B5B0B293C310541056B
:100BD0005105CCF081E090E09A8389831B8220E06C
:100BE000AE014D5F5F4FBE016F5F7F4F809153023B
:100BF0009091540271D3C0925502D0925602E09265
:100C00005702F09258020F900F900F90DF91CF9102
:100C1000FF90EF90DF90CF900895CF93DF9300D0B7
:100C200000D0CDB7DEB7CED569837A838B839C8322
:100C300044EF51E060E070E0CE01019609D7809169
:100C40004D0290914E02892B99F361E086E031DFED
:100C500042EE54E060E070E0CE010196F9D660E02B
:100C600086E027DFE5CFCF93DF93CDB7DEB72C97B4
:100C70000FB6F894DEBF0FBECDBFA4D569877A87C3
:100C80008B879C8700E024E130E040E050E0BE012B
:100C90006F5F7F4F80914F029091500249D369E27C
:100CA00071E080EA91E03CDC69817A814AE050E0C1
:100CB00080EA91E0CDDC63E371E080EA91E030DC32
:100CC0006B817C814AE050E080EA91E0C1DC61E424
:100CD00071E080EA91E024DC6D817E814AE050E0A1
:100CE00080EA91E0B5DC6CE471E080EA91E018DC28
:100CF0006F8178854AE050E080EA91E0AFDC4CE219
:100D000051E060E070E0CE010996A2D6BBCFCF9350
:100D1000DF9300D000D000D0CDB7DEB753D56983C4
:100D20007A838B839C8380E042DE9E838D8300E008
:100D30002AE030E040E050E0BE016B5F7F4F8091E1
:100D400051029091520232D24CE251E060E070E0E8
:100D5000CE0101967DD6E7CF813021E0920754F095
:100D6000813022E092074CF0813093404CF083E0D8
:100D700090E0089580E090E0089581E090E008958B
:100D800082E090E008958330910541F461E087E0CE
:100D900090DE61E088E08DDE61E016C08230910572
:100DA00029F461E087E085DE61E00BC081309105C8
:100DB00011F461E003C0892B49F460E087E079DE3B
:100DC00060E088E076DE60E089E073CE0895CF933E
:100DD000DF93CDB7DEB760970FB6F894DEBF0FBED6
:100DE000CDBFF0D469877A878B879C87188A1F8646
:100DF000E12CF12CAA24A394B12C1E861D861092FE
:100E00004E0210924D0200E024E130E040E050E05C
:100E1000BE01615F7F4F809151029091520288D252
:100E20002AE030E040E050E0BE01635F7F4F8091F8
:100E30005302909154027CD28D859E85009771F06B
:100E4000E80EF91EF7FC08C084E0E816F10434F05F
:100E500083E0E82EF12C02C0E12CF12C8F859889DB
:100E60007BDF8C018E159F0514F16701C6018BDFB6
:100E7000CF82D886FE82ED828F8598899A83898376
:100E80001C830B8300E02AE030E040E050E0BE012C
:100E90006F5F7F4F80914F029091500287D14CE25B
:100EA00051E060E070E0CE010996D2D5A6CFB092B5
:100EB0004E02A0924D026C01D9CF26E040E052ECE8
:100EC00061E070E080EA91E0FAD961E087E0B5DDA9
:100ED00061E088E0B2DD61E089E0AFDD61E086E0FD
:100EE000ACDD60E083E0A9DD60E082E0A6DD43E008
:100EF00050E067E875E081E050DC43E050E06AECE8
:100F000075E080E04ADC40E068E08AE028D1909318
:100F1000500280934F0240E062E08AE020D190933B
:100F200052028093510240E062E08AE018D190932F
:100F30005402809353020895AF92BF92CF92DF92F2
:100F4000EF92FF920F93A12CB12CC12CD12CE12C4C
:100F5000F12C04E020E030E048EC50E06DE571E079
:100F600087E896E0F6D203E020E030E048EC50E07D
:100F70006CE671E087EE96E0ECD202E020E030E033
:100F800048EC50E066E771E08DE096E0E2D201E0E7
:100F900020E030E048EC50E06DE871E083E396E05B
:100FA000D8D20F91FF90EF90DF90CF90BF90AF908D
:100FB000C4C31F93CF93DF93EC01142F48A14423A4
:100FC000D1F150E0111115C08C819D810E949411C6
:100FD00028A18C819D81820F911D9D838C832A8104
:100FE0003B818217930738F1888199819D838C8397
:100FF00022C08E819F810E94941188A190E09195DA
:10100000819591092E813F81280F391F3F832E83BF
:10101000488159812417350730F42A813B81820F9A
:10102000931F9F838E83123031F48E8D882319F0A5
:101030008E8D81508E8F8E8D8F5F8E8F80E0DF91B1
:10104000CF911F910895FC01CB0140A14423A1F051
:1010500050E026813781240F351F37832683628134
:1010600073812617370720F020813181378326834B
:10107000668177810C94941108950F931F93CF93F9
:10108000DF93EC010FB6F8940F928C010D5E1F4FA9
:101090008AA118165CF48B89882341F0C801C5D554
:1010A000811164D68AA181508AA3F2CF8FEF8AA3DF
:1010B0000F900FBE0FB6F8940F928E01085F1F4F6E
:1010C00089A118165CF48885882341F0C801ADD544
:1010D00081114CD689A1815089A3F2CF8FEF89A3CA
:1010E0000F900FBEDF91CF911F910F910895CF9375
:1010F000DF93EC010FB6F8940F92288139819F8D10
:1011000048A1949FC0011124F901E80FF91FFB8346
:10111000EA831E8E3D832C83841B9109820F931FCB
:101120009F838E838FEF89A38AA361110AC088856C
:10113000882379F0CE01089678D5813051F47BD799
:1011400008C0CE0108960E94CF10CE0143960E949F
:10115000CF100F900FBE81E0DF91CF9108950F93D4
:101160001F93CF93DF93082F162F662329F0869FB6
:10117000C0011124019602C080E090E08396FAD568
:10118000EC01009769F0111103C09983888303C0B3
:101190008396998388830F8F18A361E0CE01A7DF20
:1011A000CE01DF91CF911F910F910895AF92BF9221
:1011B000CF92DF92EF92FF920F93CF93DF93CDB751
:1011C000DEB729970FB6F894DEBF0FBECDBF7C0106
:1011D0006B012E833F834887598780E0570198E051
:1011E000A90EB11C0FB6F8940F92F701268D978DBA
:1011F000291710F00230A9F4402FB601C701D9DE3B
:10120000F7019389992339F0C70143960ED58130B0
:1012100021F411D702C08111FCCF0F900FBE81E0E5
:101220004BC04E815F8168857985452B462B472BC6
:1012300019F40F900FBE3FC0811103C0CE0101967B
:1012400031D50F900FBEB8D20FB6F8940F92F701B8
:1012500081A18F3F09F411A2F70182A18F3F09F408
:1012600012A20F900FBEBE016A5F7F4FCE010196A2
:101270002AD581111DC00FB6F8940F92F701968DF3
:101280000F900FBE878D98130FC04E815F816885C8
:101290007985C501A4D4C701F0DE6FD3882311F08E
:1012A00081E0A0CFC8D6FCCFC701E7DE66D3F8CF78
:1012B000C701E3DE62D380E029960FB6F894DEBF63
:1012C0000FBECDBFDF91CF910F91FF90EF90DF90D8
:1012D000CF90BF90AF9008950F931F93CF93DF935C
:1012E000EC019E8D8F8D981710F02230D9F48A0171
:1012F000422FCE015EDE8AA18F3F79F48B8988234D
:1013000079F0CE01439691D4882351F0011511054F
:1013100039F081E0F801808306C08AA18F5F8AA33B
:1013200081E001C080E0DF91CF911F910F9108957E
:10133000AF92BF92CF92DF92EF92FF920F93CF9333
:10134000DF93CDB7DEB729970FB6F894DEBF0FBE97
:10135000CDBF7C016B012E833F834887598780E096
:10136000570193E1A90EB11C0FB6F8940F92F70143
:10137000968D992319F1A680B780B601C70163DE67
:10138000F70101110DC0868D8150868F80858823DD
:1013900089F0C701089649D4813061F44CD60AC05F
:1013A000B782A6828389882329F0C70143963DD45A
:1013B0008111F4CF0F900FBE81E04AC04E815F8152
:1013C00068857985452B462B472B19F40F900FBE66
:1013D0003EC0811103C0CE01019664D40F900FBEB0
:1013E000EBD10FB6F8940F92F70181A18F3F09F46A
:1013F00011A2F70182A18F3F09F412A20F900FBE34
:10140000BE016A5F7F4FCE0101965DD481111CC081
:101410000FB6F8940F92F701868D0F900FBE8111D1
:101420000FC04E815F8168857985C501D8D3C7011A
:1014300024DEA3D2882311F081E096CFFCD5FCCF27
:10144000C7011BDE9AD2F8CFC70117DE96D280E023
:1014500029960FB6F894DEBF0FBECDBFDF91CF91B6
:101460000F91FF90EF90DF90CF90BF90AF900895D5
:10147000E0918602F09187028081811104C08FEF94
:101480009FEFDC010EC0E0918602F0918702078099
:10149000F085E02D0084F185E02D82819381A48187
:1014A000B58180935E0290935F02A0936002B09337
:1014B00061020895CF92DF92EF92FF92E0910C03C8
:1014C000F0910D036283738384839583C0906802D7
:1014D000D0906902E0906A02F0906B026C157D0575
:1014E0008E059F0578F460910C0370910D03809137
:1014F0008402909185026E5F7F4FFF90EF90DF90A6
:10150000CF9083C66B017C0160910C0370910D0339
:1015100080918602909187026E5F7F4F76D6809190
:101520005E0290915F02A0916002B0916102C816C4
:10153000D906EA06FB0640F4C0925E02D0925F0232
:10154000E0926002F0926102FF90EF90DF90CF9006
:1015500008955F926F927F928F929F92AF92BF9207
:10156000CF92DF92EF92FF920F931F93CF93DF936F
:101570004C01162F572E5A013901C114D10431F4F0
:10158000CA01F8D36C01892B09F4C6C08AE290E045
:10159000F1D3EC01009779F0DC8ECB8E21E0A21A1A
:1015A000B108CA0CDB1CBC01635E7F4FE12FF52D37
:1015B000CF01089606C0C6016DD4AEC0E817F90782
:1015C00049F09F014191DB014D93BD01D9012C915F
:1015D0002111F4CF1CA2102F0A3008F019E01A8F45
:1015E0005E01B2E0AB0EB11CC501EAD5CE010E968C
:1015F000E7D5DB87CA878AE090E0A0E0B0E0811BF6
:101600009109A109B1098E879F87A88BB98BDF8BC0
:10161000CE8B1DA21EA21FA218A619A6A301B4015B
:10162000C60162D499838883E114F10419F0F701AB
:10163000D183C0830FB6F8940F9280916C028F5FB4
:1016400080936C0280910C0390910D03892B89F596
:10165000D0930D03C0930C0380916C028130C1F5CF
:101660008EE9E82E82E0F82E9CE0C92E93E0D92E78
:10167000C70195D5FBE0EF0EF11CCE14DF04C1F7D6
:1016800083E992E08CD588E892E089D589E792E0F9
:1016900086D58EE692E083D583E992E09093870227
:1016A0008093860288E892E090938502809384027A
:1016B0000FC08091660281110BC0E0910C03F09184
:1016C0000D03828D081720F0D0930D03C0930C03F7
:1016D000809162028F5F809362028A8D909167028F
:1016E000981710F4809367022BE0829FC0011124A9
:1016F000B50182569D4F68D50F900FBE809166024E
:10170000882341F0E0910C03F0910D03828D801746
:1017100008F491D481E001C08FEFDF91CF911F9148
:101720000F91FF90EF90DF90CF90BF90AF909F9080
:101730008F907F906F905F900895AF92BF92CF92FD
:10174000DF92EF92FF920F93A12CB12CC12CD12CE0
:10175000E12CF12C00E020E030E045E550E06AE9C2
:1017600071E085E79DE0F5DE8130F1F4F8944FEF0C
:101770005FEFBA0140935E0250935F026093600294
:10178000709361028093660210926802109269025F
:1017900010926A0210926B020F91FF90EF90DF900F
:1017A000CF90BF90AF900CC40F91FF90EF90DF905F
:1017B000CF90BF90AF90089580915D028F5F80932E
:1017C0005D0208950FB6F8940F92609168027091CF
:1017D000690280916A0290916B020F900FBE08958A
:1017E0008F929F92AF92BF92EF92FF920F931F93AF
:1017F000CF93DF9380915D028111A9C0809168022F
:1018000090916902A0916A02B0916B020196A11DAC
:10181000B11D8093680290936902A0936A02B0930D
:101820006B028090680290906902A0906A02B0906A
:101830006B0281149104A104B104B1F48091860279
:101840009091870220918402309185023093870223
:101850002093860290938502809384028091630294
:101860008F5F8093630204DE80915E0290915F023D
:10187000A0916002B0916102C0E088169906AA06A4
:10188000BB0608F454C0DBE0E0918602F0918702C9
:101890008081811104C08FEF9FEFDC0113C0E091C4
:1018A0008602F09187020780F085E02D0085118582
:1018B000F80182819381A481B58188169906AA06D0
:1018C000BB0648F480935E0290935F02A09360028F
:1018D000B09361022CC07801F2E0EF0EF11CC70159
:1018E000D8D4D80158968D919C915997892B19F08D
:1018F000C8010E96CED4F801828D90916702981798
:1019000010F480936702D89FC0011124B70182565A
:101910009D4F5AD4E0910C03F0910D03D8015A96D3
:101920009C91828D981708F4AFCFC1E0ADCFE091C4
:101930000C03F0910D03E28DBBE0EB9FF00111244D
:10194000E256FD4F8081823040F0C1E006C08091B8
:1019500065028F5F80936502C0E08091640281110F
:10196000C1E08C2FDF91CF911F910F91FF90EF90ED
:10197000BF90AF909F908F900895EF92FF920F933A
:101980001F93CF93DF930FB6F8940F9280915D026F
:10199000815080935D0280915D02882311F080E088
:1019A0004EC080916C028823D1F38BE0F82EEE2498
:1019B000E39480917902882339F1E0918002F091DB
:1019C0008102C085D185CE010E9663D48E010E5F53
:1019D0001F4FC8015ED48A8D90916702981710F44A
:1019E00080936702F89EC0011124B80182569D4F72
:1019F000EBD3E0910C03F0910D039A8D828D981733
:101A0000C0F2E0926402D5CF80916502811108C0D6
:101A100080916402813009F0C2CF0DD381E00FC004
:101A2000C1E080916502882399F3DADE8111C093C9
:101A3000640280916502815080936502F2CF0F901D
:101A40000FBEDF91CF911F910F91FF90EF900895FE
:101A5000CF92DF92EF92FF92CF93DF93EC016A0176
:101A60007B01AADE409168025091690260916A028E
:101A700070916B0288819981AA81BB81C80ED91EA1
:101A8000EA1EFB1E481759076A077B0730F4C81681
:101A9000D906EA06FB0660F405C0C816D906EA06B0
:101AA000FB0640F081E04C155D056E057F0518F0E2
:101AB00080E001C081E0C882D982EA82FB8288236B
:101AC00049F080910C0390910D030296E2D3C70177
:101AD000B601F0DC52DF811101C0ADD2DF91CF91B0
:101AE000FF90EF90DF90CF90089580916D02882352
:101AF00021F162DEC0916E0240DFCC23B1F30FB65C
:101B0000F8940F92E0917502F0917602C085D1852C
:101B1000CE010296BED380916C02815080936C02FC
:101B200080916D02815080936D020F900FBE8B8D5E
:101B30009C8DB0D1CE01AED1D8CF80919E028230A3
:101B4000A0F279D2D2CF80915D02882321F081E08A
:101B5000809364020895109264029BE0E091670212
:101B60009E9FF0011124E256FD4F8081811106C035
:101B700080916702815080936702F0CF8091670265
:101B800090E04BE0489F9001499F300D1124F901EE
:101B9000E256FD4FA181B28114960D90BC91A02D0B
:101BA000B283A1832F553D4FA217B30731F414968A
:101BB0002D913C911597328321832BE0289FF001D2
:101BC000299FF00D1124E256FD4F0180F281E02D96
:101BD0008085918590930D0380930C030895CF9297
:101BE000DF92EF92FF926A017B0160910C0370918A
:101BF0000D03625F7F4F09D380910C0390910D0319
:101C0000029647D38091680290916902A0916A027E
:101C1000B0916B02BC01CD016C0D7D1D8E1D9F1D11
:101C2000FF90EF90DF90CF9045CC0F931F93CF9311
:101C3000DF93DC011796ED91FC911897C085D18553
:101C40008E01025F1F4FC80124D380915D02811174
:101C500013C00C501109C8011CD38A8D90916702E2
:101C6000981710F480936702BBE08B9FC00111248A
:101C7000B80182569D4F03C0B80189E792E0A4D213
:101C8000E0910C03F0910D039A8D828D891720F459
:101C900081E08093640201C080E0DF91CF911F91C9
:101CA0000F91089520916302FC0120834091680206
:101CB0005091690260916A0270916B024183528374
:101CC0006383748308958F929F92AF92BF92CF9255
:101CD000DF92EF92FF920F931F93FB010FB6F894E0
:101CE0000F92C0906802D0906902E0906A02F09072
:101CF0006B0220916302DC013C9111964D915D9144
:101D00006D917C911497321729F0C416D506E6061A
:101D1000F706F0F4008111812281338146015701D9
:101D2000841A950AA60AB70A80169106A206B30677
:101D300078F44C195D096E097F09400F511F621F2D
:101D4000731F4083518362837383ACDF80E001C0E3
:101D500081E00F900FBE1F910F91FF90EF90DF90E9
:101D6000CF90BF90AF909F908F90089581E0809327
:101D7000640208950F931F93CF93DF93EC011CDD52
:101D800080910E03811121C088E193E090931403A8
:101D90008093130310921603109215038BED95E0B8
:101DA00090931203809311031092100310920F036B
:101DB00090931B0380931A038FE093E09093190391
:101DC0008093180381E080930E03209709F02496F6
:101DD000CE0101978A3D954008F053C0E09113036E
:101DE000F0911403A3E1B3E0828193818C179D07E6
:101DF00028F023E0EF30F20749F443C0208131811D
:101E000021153105B1F3DF01F901EECF0D911C91E0
:101E100011970C5F1F4F208131812D933C938C1BB8
:101E20009D0B8930910500F1DF01AC0FBD1F1396AA
:101E30009C938E931297D383C28312964D915C919B
:101E4000139763E173E0EB0188819981EC012A81AA
:101E50003B812417350710F4BC01F5CF11969C93F4
:101E60008E93EB01B983A8838091060190910701BD
:101E700022813381821B930B90930701809306018B
:101E800002C000E010E079DDC801DF91CF911F9121
:101E90000F910895CF93DF93009719F1EC012497E8
:101EA0008BDC8A819B81E3E1F3E0A081B181129612
:101EB0002D913C9113972817390710F4FD01F5CFA8
:101EC000B983A883D183C083209106013091070193
:101ED000820F931F9093070180930601DF91CF91AA
:101EE0004CCDDF91CF91089531E1FC0130833197E2
:101EF00022E220833197A3E3A08331976083319757
:101F0000708331971082319760E860833197108237
:101F1000319762E06083319763E06083319764E0DA
:101F20006083319765E06083319766E06083319725
:101F300067E06083319768E06083319769E0608390
:101F4000319760E1608331973083319732E130839C
:101F5000319733E13083319734E13083319735E184
:101F60003083319736E13083319737E130833197D1
:101F700038E13083319739E13083319730E2308373
:101F8000319731E2308331972083319723E22083E8
:101F90003197408331975083319726E220833197E0
:101FA00027E22083319728E22083319729E220839A
:101FB000319720E32083319721E32083869708958A
:101FC00089E08093890083EC809388008BE0809384
:101FD0008100EFE6F0E0808182608083A0910C03B5
:101FE000B0910D03CD91CDBFDD91DEBFFF91EF919B
:101FF000DF91CF91BF91AF919F918F917F916F9121
:102000005F914F913F912F911F910F91FF90EF9012
:10201000DF90CF90BF90AF909F908F907F906F9008
:102020005F904F903F902F901F900F900FBE0F909A
:10203000089581E008950F920FB6F8940F921F92C1
:1020400011242F923F924F925F926F927F928F92C4
:102050009F92AF92BF92CF92DF92EF92FF920F9337
:102060001F932F933F934F935F936F937F938F9320
:102070009F93AF93BF93CF93DF93EF93FF93A09181
:102080000C03B0910D030DB60D920EB60D925BDDF3
:10209000A0910C03B0910D03CD91CDBFDD91DEBFBA
:1020A000FF91EF91DF91CF91BF91AF919F918F9170
:1020B0007F916F915F914F913F912F911F910F9160
:1020C000FF90EF90DF90CF90BF90AF909F908F9058
:1020D0007F906F905F904F903F902F901F900F9048
:1020E0000FBE0F9008950F920FB6F8940F921F92A3
:1020F00011242F923F924F925F926F927F928F9214
:102100009F92AF92BF92CF92DF92EF92FF920F9386
:102110001F932F933F934F935F936F937F938F936F
:102120009F93AF93BF93CF93DF93EF93FF93A091D0
:102130000C03B0910D030DB60D920EB60D9250DB4F
:10214000811101DDA0910C03B0910D03CD91CDBFA4
:10215000DD91DEBFFF91EF91DF91CF91BF91AF9104
:102160009F918F917F916F915F914F913F912F91AF
:102170001F910F91FF90EF90DF90CF90BF90AF90A5
:102180009F908F907F906F905F904F903F902F9097
:102190001F900F900FBE0F900895A5DF1895FC01BA
:1021A0000396928381834FEF5FEFBA014383548399
:1021B00065837683908787839287818710820895CD
:1021C000FC01138612860895CF93DF939C01FB01D7
:1021D000DC011196CD91DC911297D583C4838E8159
:1021E0009F81978386838E819F81DC0115967C93E6
:1021F0006E9314977F836E8333872287F9018081E2
:102200008F5F8083DF91CF910895EF92FF920F93BC
:102210001F93CF93DF937C01FB0140815181628149
:1022200073814F3F8FEF58076807780721F4E70164
:10223000A985BA8512C0D701139614968D919C91E9
:102240001597EC01088119812A813B8140175107BC
:102250006207730710F0DC01F0CF14968D919C910A
:10226000159795838483EC01FF83EE83B783A68360
:102270001596FC93EE931497F386E286F70180811E
:102280008F5F8083DF91CF911F910F91FF90EF902F
:102290000895CF93DF93FC01A285B3858481958156
:1022A00026813781EC013F832E83C681D7819D83B0
:1022B0008C8311968D919C911297E817F90721F460
:1022C0001296DC93CE931197138612868C918150CF
:1022D0008C93DF91CF910895A1E21A2EAA1BBB1B0C
:1022E000FD010DC0AA1FBB1FEE1FFF1FA217B307E2
:1022F000E407F50720F0A21BB30BE40BF50B661FF8
:10230000771F881F991F1A9469F7609570958095BB
:1023100090959B01AC01BD01CF010895EE0FFF1F09
:102320000590F491E02D0994FB01DC0102C00190BD
:0E2330000D9241505040D8F70895F894FFCF19
:10233E00FFCC03CC0301DB0500000000F2005102CC
:10234E00B4003E018600A00092000D0A006E616E80
:10235E0000696E66006F76660044697374616E6321
:10236E0065200020205361666520537065656420EA
:10237E000020204465736972656420002020437537
:10238E007272656E742053706565642000557064BA
:10239E0061746544697374616E63650053686F7729
:1023AE005370656564005361666574794272656148
:1023BE006B4C69676874456E67616765005570643C
:1023CE0061746553657269616C0049444C45000047
:00000001FF
